:020000040000FA
:10000000000002207D050000A5050000A7050000F6
:10001000A9050000AB050000AD05000000000000D0
:10002000000000000000000000000000AF0500001C
:10003000B105000000000000B3050000B505000098
:10004000B7050000B7050000B7050000B7050000C0
:10005000B7050000B7050000B7050000B7050000B0
:10006000B7050000B7050000B7050000B7050000A0
:10007000B7050000B7050000B7050000B705000090
:10008000B7050000B7050000B7050000B705000080
:10009000B7050000B7050000B7050000B705000070
:1000A000B7050000B7050000B7050000B705000060
:1000B000B7050000B70500000000000000000000C8
:1000C000B7050000B7050000B7050000B705000040
:1000D000B7050000B7050000B7050000B705000030
:1000E000B705000000000000000000000000000054
:1000F00000000000B705000000000000B705000088
:1001000000000000000000000000000000000000EF
:1001100000000000000000000000000000000000DF
:1001200000000000000000000000000000000000CF
:1001300000000000000000000000000000000000BF
:1001400000000000000000000000000000000000AF
:10015000000000000000000000000000000000009F
:10016000000000000000000000000000000000008F
:10017000000000000000000000000000000000007F
:10018000000000000000000000000000000000006F
:10019000000000000000000000000000000000005F
:1001A000000000000000000000000000000000004F
:1001B000000000000000000000000000000000003F
:1001C000000000000000000000000000000000002F
:1001D000000000000000000000000000000000001F
:1001E000000000000000000000000000000000000F
:1001F000B705000000000000000000000000000043
:1002000010B5054C237833B9044B13B10448AFF350
:1002100000800123237010BD3C040020000000007A
:10022000E806000008B5034B1BB103490348AFF3D0
:10023000008008BD0000000040040020E806000027
:10024000A3F5803A704700BF174B002B08BF134B34
:100250009D46FFF7F5FF00218B460F461348144AD1
:10026000121A00F05FF80E4B002B00D098470D4B90
:10027000002B00D098470020002104000D000D48FD
:10028000002802D00C4800F00FF900F027F82000F9
:10029000290000F071F900F011F800BF000008001B
:1002A0000000000000000000000002203C040020CC
:1002B0005C040020A9040000B504000008B500217A
:1002C000044600F08BF8044B1868C36B03B19847E1
:1002D000204600F04FF900BFE406000070B50D4E57
:1002E0000D4D761BB61006D0002455F8043B0134A2
:1002F0009847A642F9D1094E094D761B00F0E6F960
:10030000B61006D0002455F8043B01349847A642A5
:10031000F9D170BD300400203004002038040020E2
:1003200030040020830730B548D0541E002A3FD047
:10033000CAB2034601E0013C3AD303F8012B9D0702
:10034000F9D1032C2DD9CDB245EA05250F2C45EA6C
:10035000054536D9A4F1100222F00F0C03F1200E4E
:10036000E6444FEA121C03F1100242E9045542E947
:10037000025510327245F8D10CF1010214F00C0F45
:1003800003EB021204F00F0C13D0ACF1040323F0C2
:1003900003030433134442F8045B9342FBD10CF093
:1003A00003042CB1CAB21C4403F8012B9C42FBD1BC
:1003B00030BD64461346002CF4D1F9E703461446D9
:1003C000BFE71A46A446E0E7024B13B1024800F02B
:1003D0006BB8704700000000B50400002DE9F84F2D
:1003E0002F4B2DED028B834618680F4600F078F8EE
:1003F0002C4BD3F80080D8F84861AEB108EE10BAA3
:100400004FF001094FF0000A7468651E0CD40134E6
:1004100006EB840487B1D4F80031BB420CD0013D17
:100420006B1CA4F10404F5D1BDEC028B1C4B1868C5
:10043000BDE8F84F00F056B873682268013BAB4244
:100440000CBF7560C4F800A0002AE8D0D6F8880177
:10045000D6F804B009FA05F101420BD19047726851
:100460005A4513D1D8F84831B342D8D01E46002E91
:10047000CAD1D9E7D6F88C0101420CD1D4F880104A
:1004800018EE100A904772685A45EBD0D8F84861C8
:10049000002EB9D1C8E7D4F880009047DFE700BF4D
:1004A00028040020E4060000002301461A461846EE
:1004B00000F01AB838B5084B084D5B1B9C1007D0EC
:1004C000043B1D44013C55F804399847002CF9D1F0
:1004D000BDE8384000F000B93C040020380400209A
:1004E000704700BF704700BF2DE9F047DFF880A0DC
:1004F0000646DAF8000098460F469146FFF7F0FFEF
:100500001A4B1B68D3F8484124B365681F2D26DCBD
:100510005EB96B1C0235DAF80000636044F82570A0
:10052000FFF7E0FF0020BDE8F08704EB8501012321
:10053000C1F88890D4F88821AB401A43022EC4F841
:100540008821C1F80881E4D1D4F88C211343C4F880
:100550008C31DEE703F5A674C3F84841D5E7DAF835
:100560000000FFF7BFFF4FF0FF30DCE7E4060000BC
:1005700028040020FEE700BFFEE700BF0649074A47
:10058000074B9B1A03DD043BC858D050FBDC00F03E
:1005900013F8FFF759FE00000807000000000020D4
:1005A0003C040020FEE7FEE7FEE7FEE7FEE7FEE78D
:1005B000FEE7FEE7FEE7FEE74FF08053D3F8302179
:1005C0000D2A55D14FF080410020C1F80C013B4A63
:1005D000C1F81001C1F83805D3F80404C2F82005A9
:1005E000D3F80804C2F82405D3F80C04C2F828058F
:1005F000D3F81004C2F82C05D3F81404C2F830055F
:10060000D3F81804C2F83405D3F81C04C2F8400526
:10061000D3F82004C2F84405D3F82404C2F84805EE
:10062000D3F82804C2F84C05D3F82C04C2F85005BE
:10063000D3F83004C2F85405D3F83404C2F8600586
:10064000D3F83804C2F86405D3F83C04C2F868054E
:10065000D3F84004C2F86C05D3F84434C2F87035BE
:10066000D1F80034DB0744BF6FF00103C1F8003458
:10067000134AD2F8883043F47003C2F88830BFF3CD
:100680004F8FBFF36F8F4FF08053D3F830210D2A77
:1006900003D00C4B0C4A1A607047D3F83431002B4E
:1006A000F7D04FF010224FF08043D2F80822C3F861
:1006B0005825044B044A1A60704700BF00C0004030
:1006C00000ED00E02C0400200090D003F8B500BF3E
:1006D000F8BC08BC9E467047F8B500BFF8BC08BC23
:1006E0009E4670470000002000000000FFFFFFFF53
:1006F000FFFFFFFFFFFFFFFFFFFFFFFFFFFFFFFF0A
:1007000040FBFF7F0100000000000000EC02002021
:1007100054030020BC030020000000000000000083
:1007200000000000000000000000000000000000C9
:1007300000000000000000000000000000000000B9
:1007400000000000000000000000000000000000A9
:100750000000000000000000000000000000000099
:100760000000000000000000000000000000000089
:100770000000000000000000000000000000000079
:100780000000000000000000000000000000000069
:100790000000000000000000000000000000000059
:1007A0000000000000000000000000000000000049
:1007B00001000000000000000E33CDAB34126DE6E6
:1007C000ECDE05000B00000000000000000000004F
:1007D0000000000000000000000000000000000019
:1007E0000000000000000000000000000000000009
:1007F00000000000000000000000000000000000F9
:1008000000000000000000000000000000000000E8
:100B3000580400200090D003C903000025020000E3
:040B400001020000AE
:00000001FF